:060000000A128A11FC2F18
:100F50008316031386011A30F100F830F000F00B0D
:100F6000AF2FF10BAF2F0000831603130514851468
:100F70001A30F100F830F000F00BBC2FF10BBC2F51
:100F8000000008000A128A11A8270A128A11831287
:100F900003130518851CF62F0D30F300FB30F2000B
:100FA000F20BD02FF30BD02FD52F8312031306147F
:100FB0000B30F4002630F3005D30F200F20BDE2F30
:100FC000F30BDE2FF40BDE2FE52F83120313061035
:100FD0001030F4003930F3000D30F200F20BEE2F38
:100FE000F30BEE2FF40BEE2FF52FF92F83120313D3
:100FF00086010A128A11002883010A128A11C22F5F
:00000001FF
