:060000000A128A11FC2F18
:100F2E008316031306108610061186110430F10085
:100F3E003D30F000F00BA12FF10BA12FA62F0800D2
:100F4E000A128A1197270A128A110430F3003D30D3
:100F5E00F200F20BB02FF30BB02FB52F8312031349
:100F6E0006140230F4004530F300A930F200F20B03
:100F7E00BE2FF30BBE2FF40BBE2FC52F8312031300
:100F8E00061086140230F4004530F300A930F2004A
:100F9E00F20BCF2FF30BCF2FF40BCF2FD62F8312B5
:100FAE000313861006150230F4004530F300A93005
:100FBE00F200F20BE02FF30BE02FF40BE02FE72FF4
:100FCE0083120313061186150230F4004530F30028
:100FDE00A930F200F20BF12FF30BF12FF40BF12FDE
:100FEE00F82F831203138611B52F83010A128A116B
:020FFE00A72F1B
:00000001FF
