:060000000A128A11FC2F18
:100E60008316031306108610061186110430F10054
:100E70003D30F000F00B3A2FF10B3A2F3F2F0800D6
:100E80000A128A1130270A128A110430F3003D3009
:100E9000F200F20B492FF30B492F4E2FA32F86019F
:100EA0000230F4004530F300A930F200F20B562F67
:100EB000F30B562FF40B562F5D2F831203130614DA
:100EC0000230F4004530F300A930F200F20B662F37
:100ED000F30B662FF40B662F6D2F8312031306108E
:100EE00086140230F4004530F300A930F200F20B12
:100EF000772FF30B772FF40B772F7E2F83120313AB
:100F0000861006150230F4004530F300A930F200D7
:100F1000F20B882FF30B882FF40B882F8F2F83125F
:100F20000313061186150230F4004530F300A93092
:100F3000F200F20B992FF30B992FF40B992FA02F9E
:100F40008312031386118312031307184F2F860190
:100F50000230F4004530F300A930F200F20BAE2F5E
:100F6000F30BAE2FF40BAE2FB52F831203138615A0
:100F70000230F4004530F300A930F200F20BBE2F2E
:100F8000F30BBE2FF40BBE2FC52F83120313861154
:100F900006150230F4004530F300A930F200F20BE0
:100FA000CF2FF30BCF2FF40BCF2FD62F831203139A
:100FB000061186140230F4004530F300A930F20027
:100FC000F20BE02FF30BE02FF40BE02FE72F83124F
:100FD0000313861006140230F4004530F300A930E4
:100FE000F200F20BF12FF30BF12FF40BF12FF82F8E
:100FF000831203130610A32F83010A128A11402FB4
:00000001FF
