:1000000000308A0079280000FF00030E8301A10060
:100010000A08A0008A010408A2007708A300780853
:10002000A4007908A5007A08A600831383120B1E8A
:100030001B288B182C28220884002308F70024088A
:10004000F8002508F9002608FA0020088A00210E89
:100050008300FF0E7F0E09008A110A1244282C30FB
:10006000840083130008031943280130F800F701C6
:10007000F70B3828F80B37284A30F700F70B3E28E3
:100080004128800B352808008316061483120618B1
:10009000752828148316061383120617A81C5728E0
:1000A0005030AB00FA30AC002F20AB0B5228831637
:1000B00006158312061D6528831686128312861282
:1000C0008316061283120616572883160612831209
:1000D00006122830AB00FA30AC002F20AB0B6B2897
:1000E000831606138312061344288B108A110A12F2
:1000F0001B2803081F39830083161F149F141F1524
:100100009F1107309C0083138113C03083128B042E
:100110000B1683160113861283128612831606129B
:1001200083120612831606138312061328108316F1
:10013000861483128618E3282818E3288316861568
:100140008312861DB8282818B828831686128312B1
:1001500086168316061283120612831686158312DC
:10016000861DB428281CAD28831686128312861299
:100170002818E328A8142830A900A7018B1BA7176B
:100180008B13FA30AC002F20A71B8B17A90BBD28AF
:10019000A810831606158312061DDF282818DF28ED
:1001A000831686128312861283160612831206168F
:1001B000831606158312061DDF28281CD8288316EF
:0A01C000061283120612962863004F
:02400E00313F40
:00000001FF
;PIC16F877A
;CRC=DA5D  CREATED="20-May-16 15:27"
